{
  "_format": "hh3-artifact-1",
  "contractName": "Bank",
  "sourceName": "contracts/Bank.sol",
  "abi": [
    {
      "anonymous": false,
      "inputs": [
        {
          "indexed": true,
          "internalType": "address",
          "name": "user",
          "type": "address"
        },
        {
          "indexed": false,
          "internalType": "uint256",
          "name": "amount",
          "type": "uint256"
        }
      ],
      "name": "Deposit",
      "type": "event"
    },
    {
      "anonymous": false,
      "inputs": [
        {
          "indexed": true,
          "internalType": "address",
          "name": "user",
          "type": "address"
        },
        {
          "indexed": false,
          "internalType": "uint256",
          "name": "amount",
          "type": "uint256"
        }
      ],
      "name": "Withdraw",
      "type": "event"
    },
    {
      "inputs": [
        {
          "internalType": "address",
          "name": "",
          "type": "address"
        }
      ],
      "name": "balances",
      "outputs": [
        {
          "internalType": "uint256",
          "name": "",
          "type": "uint256"
        }
      ],
      "stateMutability": "view",
      "type": "function"
    },
    {
      "inputs": [],
      "name": "deposit",
      "outputs": [],
      "stateMutability": "payable",
      "type": "function"
    },
    {
      "inputs": [
        {
          "internalType": "address",
          "name": "user",
          "type": "address"
        }
      ],
      "name": "getBalance",
      "outputs": [
        {
          "internalType": "uint256",
          "name": "",
          "type": "uint256"
        }
      ],
      "stateMutability": "view",
      "type": "function"
    },
    {
      "inputs": [
        {
          "internalType": "uint256",
          "name": "amount",
          "type": "uint256"
        }
      ],
      "name": "withdraw",
      "outputs": [],
      "stateMutability": "nonpayable",
      "type": "function"
    }
  ],
  "bytecode": "0x6080604052348015600e575f5ffd5b506102bc8061001c5f395ff3fe60806040526004361061003e575f3560e01c806327e235e3146100425780632e1a7d4d1461007f578063d0e30db0146100a0578063f8b2cb4f146100a8575b5f5ffd5b34801561004d575f5ffd5b5061006d61005c366004610202565b5f6020819052908152604090205481565b60405190815260200160405180910390f35b34801561008a575f5ffd5b5061009e61009936600461022f565b6100dc565b005b61009e61019d565b3480156100b3575f5ffd5b5061006d6100c2366004610202565b6001600160a01b03165f9081526020819052604090205490565b5f81116100e7575f5ffd5b335f90815260208190526040902054808211156101415760405162461bcd60e51b8152602060048201526014602482015273496e73756666696369656e742062616c616e636560601b604482015260640160405180910390fd5b335f908152602081905260408120805484929061015f90849061025a565b909155505060405182815233907f884edad9ce6fa2440d8a54cc123490eb96d2768479d49ff9c7366125a94243649060200160405180910390a25050565b5f34116101a8575f5ffd5b335f90815260208190526040812080543492906101c6908490610273565b909155505060405134815233907fe1fffcc4923d04b559f4d29a8bfc6cda04eb5b0d3c460751c2402c5c5cc9109c9060200160405180910390a2565b5f60208284031215610212575f5ffd5b81356001600160a01b0381168114610228575f5ffd5b9392505050565b5f6020828403121561023f575f5ffd5b5035919050565b634e487b7160e01b5f52601160045260245ffd5b8181038181111561026d5761026d610246565b92915050565b8082018082111561026d5761026d61024656fea26469706673582212209529191544ad7a46dcf4f5f8465a52c090ceeef3d47279b0295fca0ea0264cef64736f6c634300081c0033",
  "linkReferences": {},
  "deployedLinkReferences": {},
  "immutableReferences": {},
  "inputSourceName": "project/contracts/Bank.sol",
  "buildInfoId": "solc-0_8_28-777157af2262fac99a9a1ece8644329546b8abab"
}