{
  "_format": "hh3-artifact-1",
  "contractName": "Bank",
  "sourceName": "contracts/Bank.sol",
  "abi": [
    {
      "anonymous": false,
      "inputs": [
        {
          "indexed": true,
          "internalType": "address",
          "name": "user",
          "type": "address"
        },
        {
          "indexed": false,
          "internalType": "uint256",
          "name": "amount",
          "type": "uint256"
        }
      ],
      "name": "Deposit",
      "type": "event"
    },
    {
      "anonymous": false,
      "inputs": [
        {
          "indexed": true,
          "internalType": "address",
          "name": "user",
          "type": "address"
        },
        {
          "indexed": false,
          "internalType": "uint256",
          "name": "amount",
          "type": "uint256"
        }
      ],
      "name": "Withdraw",
      "type": "event"
    },
    {
      "inputs": [
        {
          "internalType": "address",
          "name": "",
          "type": "address"
        }
      ],
      "name": "balances",
      "outputs": [
        {
          "internalType": "uint256",
          "name": "",
          "type": "uint256"
        }
      ],
      "stateMutability": "view",
      "type": "function"
    },
    {
      "inputs": [],
      "name": "deposit",
      "outputs": [],
      "stateMutability": "payable",
      "type": "function"
    },
    {
      "inputs": [
        {
          "internalType": "address",
          "name": "user",
          "type": "address"
        }
      ],
      "name": "getBalance",
      "outputs": [
        {
          "internalType": "uint256",
          "name": "",
          "type": "uint256"
        }
      ],
      "stateMutability": "view",
      "type": "function"
    },
    {
      "inputs": [
        {
          "internalType": "uint256",
          "name": "amount",
          "type": "uint256"
        }
      ],
      "name": "withdraw",
      "outputs": [],
      "stateMutability": "nonpayable",
      "type": "function"
    }
  ],
  "bytecode": "0x6080604052348015600e575f5ffd5b506103898061001c5f395ff3fe60806040526004361061003e575f3560e01c806327e235e3146100425780632e1a7d4d1461007f578063d0e30db0146100a0578063f8b2cb4f146100a8575b5f5ffd5b34801561004d575f5ffd5b5061006d61005c3660046102cf565b5f6020819052908152604090205481565b60405190815260200160405180910390f35b34801561008a575f5ffd5b5061009e6100993660046102fc565b6100dc565b005b61009e61026a565b3480156100b3575f5ffd5b5061006d6100c23660046102cf565b6001600160a01b03165f9081526020819052604090205490565b5f81116101305760405162461bcd60e51b815260206004820181905260248201527f416d6f756e74206d7573742062652067726561746572207468616e207a65726f60448201526064015b60405180910390fd5b335f90815260208190526040902054808211156101865760405162461bcd60e51b8152602060048201526014602482015273496e73756666696369656e742062616c616e636560601b6044820152606401610127565b6040515f90339084908381818185875af1925050503d805f81146101c5576040519150601f19603f3d011682016040523d82523d5f602084013e6101ca565b606091505b505090508061020d5760405162461bcd60e51b815260206004820152600f60248201526e151c985b9cd9995c8819985a5b1959608a1b6044820152606401610127565b335f908152602081905260408120805485929061022b908490610327565b909155505060405183815233907f884edad9ce6fa2440d8a54cc123490eb96d2768479d49ff9c7366125a94243649060200160405180910390a2505050565b5f3411610275575f5ffd5b335f9081526020819052604081208054349290610293908490610340565b909155505060405134815233907fe1fffcc4923d04b559f4d29a8bfc6cda04eb5b0d3c460751c2402c5c5cc9109c9060200160405180910390a2565b5f602082840312156102df575f5ffd5b81356001600160a01b03811681146102f5575f5ffd5b9392505050565b5f6020828403121561030c575f5ffd5b5035919050565b634e487b7160e01b5f52601160045260245ffd5b8181038181111561033a5761033a610313565b92915050565b8082018082111561033a5761033a61031356fea26469706673582212209e3862812ae6ccac73b2a24ed2aaea8376546668c770c662baf3e7ff0e0b39ba64736f6c634300081c0033",
  "linkReferences": {},
  "deployedLinkReferences": {},
  "immutableReferences": {},
  "inputSourceName": "project/contracts/Bank.sol",
  "buildInfoId": "solc-0_8_28-3aea0851660007c2c72320401d8e751482075025"
}